{"abi":[{"type":"constructor","inputs":[{"name":"mailbox","type":"address","internalType":"address"}],"stateMutability":"nonpayable"},{"type":"function","name":"blockCount","inputs":[],"outputs":[{"name":"","type":"uint256","internalType":"uint256"}],"stateMutability":"view"},{"type":"function","name":"createGame","inputs":[{"name":"levelId","type":"uint256","internalType":"uint256"},{"name":"wagerAmount","type":"uint256","internalType":"uint256"},{"name":"players","type":"address[]","internalType":"address[]"}],"outputs":[{"name":"gameId","type":"uint256","internalType":"uint256"}],"stateMutability":"payable"},{"type":"function","name":"createLevel","inputs":[{"name":"name","type":"string","internalType":"string"},{"name":"map","type":"tuple[]","internalType":"struct HotdogHavoc.Block[]","components":[{"name":"x","type":"uint8","internalType":"uint8"},{"name":"y","type":"uint8","internalType":"uint8"}]}],"outputs":[{"name":"levelId","type":"uint256","internalType":"uint256"}],"stateMutability":"nonpayable"},{"type":"function","name":"gameCount","inputs":[],"outputs":[{"name":"","type":"uint256","internalType":"uint256"}],"stateMutability":"view"},{"type":"function","name":"games","inputs":[{"name":"","type":"uint256","internalType":"uint256"}],"outputs":[{"name":"wagerAmount","type":"uint256","internalType":"uint256"},{"name":"levelId","type":"uint256","internalType":"uint256"},{"name":"activePlayer","type":"address","internalType":"address"},{"name":"state","type":"uint8","internalType":"enum HotdogHavoc.GameState"},{"name":"isPrivate","type":"bool","internalType":"bool"}],"stateMutability":"view"},{"type":"function","name":"getLevelBlocks","inputs":[{"name":"levelId","type":"uint256","internalType":"uint256"}],"outputs":[{"name":"","type":"tuple[]","internalType":"struct HotdogHavoc.Block[]","components":[{"name":"x","type":"uint8","internalType":"uint8"},{"name":"y","type":"uint8","internalType":"uint8"}]}],"stateMutability":"view"},{"type":"function","name":"getOwnerLevels","inputs":[{"name":"owner","type":"address","internalType":"address"}],"outputs":[{"name":"","type":"uint256[]","internalType":"uint256[]"}],"stateMutability":"view"},{"type":"function","name":"getTeamNames","inputs":[{"name":"player","type":"address","internalType":"address"}],"outputs":[{"name":"","type":"string[]","internalType":"string[]"}],"stateMutability":"view"},{"type":"function","name":"levelCount","inputs":[],"outputs":[{"name":"","type":"uint256","internalType":"uint256"}],"stateMutability":"view"},{"type":"function","name":"levels","inputs":[{"name":"","type":"uint256","internalType":"uint256"}],"outputs":[{"name":"id","type":"uint256","internalType":"uint256"},{"name":"owner","type":"address","internalType":"address"},{"name":"name","type":"string","internalType":"string"}],"stateMutability":"view"},{"type":"function","name":"setTeamNames","inputs":[{"name":"names","type":"string[]","internalType":"string[]"}],"outputs":[],"stateMutability":"nonpayable"},{"type":"function","name":"taskMailbox","inputs":[],"outputs":[{"name":"","type":"address","internalType":"address"}],"stateMutability":"view"},{"type":"event","name":"GameCreated","inputs":[{"name":"gameId","type":"uint256","indexed":true,"internalType":"uint256"},{"name":"creator","type":"address","indexed":true,"internalType":"address"},{"name":"levelId","type":"uint256","indexed":false,"internalType":"uint256"},{"name":"wagerAmount","type":"uint256","indexed":false,"internalType":"uint256"},{"name":"players","type":"address[]","indexed":false,"internalType":"address[]"}],"anonymous":false},{"type":"event","name":"LevelCreated","inputs":[{"name":"levelId","type":"uint256","indexed":true,"internalType":"uint256"},{"name":"owner","type":"address","indexed":true,"internalType":"address"},{"name":"name","type":"string","indexed":false,"internalType":"string"}],"anonymous":false}],"bytecode":{"object":"0x60806040525f6004555f6005555f600755348015601a575f5ffd5b5060405161133c38038061133c833981016040819052603791605a565b5f80546001600160a01b0319166001600160a01b03929092169190911790556085565b5f602082840312156069575f5ffd5b81516001600160a01b0381168114607e575f5ffd5b9392505050565b6112aa806100925f395ff3fe6080604052600436106100a5575f3560e01c8063a65fc86711610062578063a65fc8671461019b578063b2596a67146101c7578063c3534c66146101f5578063cbb9dba814610221578063ce8da6a11461024d578063f42a9e131461026c575f5ffd5b806307225b4d146100a9578063117a5b90146100d1578063202b0a9e1461013d5780634d1975b414610150578063651a2b4c146101655780638678074e1461017a575b5f5ffd5b3480156100b4575f5ffd5b506100be60055481565b6040519081526020015b60405180910390f35b3480156100dc575f5ffd5b5061012c6100eb366004610b24565b600660208190525f91825260409091206001810154600282015491909201546001600160a01b0381169060ff600160a01b8204811691600160a81b90041685565b6040516100c8959493929190610b3b565b6100be61014b366004610c38565b6102a2565b34801561015b575f5ffd5b506100be60075481565b348015610170575f5ffd5b506100be60045481565b348015610185575f5ffd5b50610199610194366004610d55565b610524565b005b3480156101a6575f5ffd5b506101ba6101b5366004610e06565b610639565b6040516100c89190610e4d565b3480156101d2575f5ffd5b506101e66101e1366004610b24565b610723565b6040516100c893929190610eb0565b348015610200575f5ffd5b5061021461020f366004610e06565b6107d6565b6040516100c89190610ee2565b34801561022c575f5ffd5b5061024061023b366004610b24565b61083f565b6040516100c89190610f24565b348015610258575f5ffd5b506100be610267366004610f7d565b6108b4565b348015610277575f5ffd5b505f5461028a906001600160a01b031681565b6040516001600160a01b0390911681526020016100c8565b5f60045484106102f05760405162461bcd60e51b815260206004820152601460248201527313195d995b08191bd95cc81b9bdd08195e1a5cdd60621b60448201526064015b60405180910390fd5b5f831161034b5760405162461bcd60e51b815260206004820152602360248201527f576167657220616d6f756e74206d75737420626520677265617465722074686160448201526206e20360ec1b60648201526084016102e7565b8234101561039b5760405162461bcd60e51b815260206004820152601e60248201527f496e73756666696369656e7420776167657220616d6f756e742073656e74000060448201526064016102e7565b60078054905f6103aa83611084565b909155505f81815260066020818152604083206001808201899055600282018a905592810180548851600160a81b9015150261ffff60a01b19339081166001600160b01b031990931692909217179091558154938401825581855291842090920180546001600160a01b03191690911790559192505b835181101561048257815f0184828151811061043e5761043e61109c565b6020908102919091018101518254600180820185555f9485529290932090920180546001600160a01b0319166001600160a01b039093169290921790915501610420565b505f5b81548110156104db576104d28360085f855f0185815481106104a9576104a961109c565b5f9182526020808320909101546001600160a01b03168352820192909252604001902090610a08565b50600101610485565b50604051339083907f45234e9cd8773050fd7a46556c11ba8774148634d454a3f63096f9f142c2f6df90610514908990899087906110b0565b60405180910390a3509392505050565b80516004146105755760405162461bcd60e51b815260206004820152601c60248201527f4d7573742070726f766964652065786163746c792034206e616d65730000000060448201526064016102e7565b5f5b6004811015610615575f8282815181106105935761059361109c565b602002602001015151118160016105aa9190611110565b6040516402730b6b2960dd1b602082015260258101919091526f2063616e6e6f7420626520656d70747960801b60458201526055016040516020818303038152906040529061060c5760405162461bcd60e51b81526004016102e79190611123565b50600101610577565b50335f908152600360209081526040909120825161063592840190610a66565b5050565b6001600160a01b0381165f908152600360209081526040808320805482518185028101850190935280835260609492939192909184015b82821015610718578382905f5260205f2001805461068d90611135565b80601f01602080910402602001604051908101604052809291908181526020018280546106b990611135565b80156107045780601f106106db57610100808354040283529160200191610704565b820191905f5260205f20905b8154815290600101906020018083116106e757829003601f168201915b505050505081526020019060010190610670565b505050509050919050565b600160208190525f91825260409091208054918101546002820180546001600160a01b03909216929161075590611135565b80601f016020809104026020016040519081016040528092919081815260200182805461078190611135565b80156107cc5780601f106107a3576101008083540402835291602001916107cc565b820191905f5260205f20905b8154815290600101906020018083116107af57829003601f168201915b5050505050905083565b6001600160a01b0381165f9081526002602090815260409182902080548351818402810184019094528084526060939283018282801561083357602002820191905f5260205f20905b81548152602001906001019080831161081f575b50505050509050919050565b606060015f8381526020019081526020015f20600301805480602002602001604051908101604052809291908181526020015f905b82821015610718575f848152602090819020604080518082019091529084015460ff80821683526101009091041681830152825260019092019101610874565b600480545f91826108c483611084565b909155505f81815260016020819052604090912082815590810180546001600160a01b03191633179055909150600281016108ff85826111b9565b505f5b83518110156109a35781600301604051806040016040528086848151811061092c5761092c61109c565b60200260200101515f015160ff1681526020018684815181106109515761095161109c565b60209081029190910181015181015160ff9081169092528354600181810186555f95865294829020845191018054949092015183166101000261ffff1990941692169190911791909117905501610902565b50335f818152600260209081526040808320805460018101825590845291909220018490555183907f6e166fa4d82f88394e87ec8b551365d0d7890550392b33a0effdcbd29780067c906109f8908890611123565b60405180910390a3505b92915050565b5f610a138383610a1a565b9392505050565b5f818152600183016020526040812054610a5f57508154600181810184555f848152602080822090930184905584548482528286019093526040902091909155610a02565b505f610a02565b828054828255905f5260205f20908101928215610aaa579160200282015b82811115610aaa5782518290610a9a90826111b9565b5091602001919060010190610a84565b50610ab6929150610aba565b5090565b80821115610ab6575f610acd8282610ad6565b50600101610aba565b508054610ae290611135565b5f825580601f10610af1575050565b601f0160209004905f5260205f2090810190610b0d9190610b10565b50565b5b80821115610ab6575f8155600101610b11565b5f60208284031215610b34575f5ffd5b5035919050565b858152602081018590526001600160a01b038416604082015260a0810160048410610b7457634e487b7160e01b5f52602160045260245ffd5b83606083015282151560808301529695505050505050565b634e487b7160e01b5f52604160045260245ffd5b6040805190810167ffffffffffffffff81118282101715610bc357610bc3610b8c565b60405290565b604051601f8201601f1916810167ffffffffffffffff81118282101715610bf257610bf2610b8c565b604052919050565b5f67ffffffffffffffff821115610c1357610c13610b8c565b5060051b60200190565b80356001600160a01b0381168114610c33575f5ffd5b919050565b5f5f5f60608486031215610c4a575f5ffd5b8335925060208401359150604084013567ffffffffffffffff811115610c6e575f5ffd5b8401601f81018613610c7e575f5ffd5b8035610c91610c8c82610bfa565b610bc9565b8082825260208201915060208360051b850101925088831115610cb2575f5ffd5b6020840193505b82841015610cdb57610cca84610c1d565b825260209384019390910190610cb9565b809450505050509250925092565b5f82601f830112610cf8575f5ffd5b813567ffffffffffffffff811115610d1257610d12610b8c565b610d25601f8201601f1916602001610bc9565b818152846020838601011115610d39575f5ffd5b816020850160208301375f918101602001919091529392505050565b5f60208284031215610d65575f5ffd5b813567ffffffffffffffff811115610d7b575f5ffd5b8201601f81018413610d8b575f5ffd5b8035610d99610c8c82610bfa565b8082825260208201915060208360051b850101925086831115610dba575f5ffd5b602084015b83811015610dfb57803567ffffffffffffffff811115610ddd575f5ffd5b610dec89602083890101610ce9565b84525060209283019201610dbf565b509695505050505050565b5f60208284031215610e16575f5ffd5b610a1382610c1d565b5f81518084528060208401602086015e5f602082860101526020601f19601f83011685010191505092915050565b5f602082016020835280845180835260408501915060408160051b8601019250602086015f5b82811015610ea457603f19878603018452610e8f858351610e1f565b94506020938401939190910190600101610e73565b50929695505050505050565b8381526001600160a01b03831660208201526060604082018190525f90610ed990830184610e1f565b95945050505050565b602080825282518282018190525f918401906040840190835b81811015610f19578351835260209384019390920191600101610efb565b509095945050505050565b602080825282518282018190525f918401906040840190835b81811015610f19578351805160ff9081168552602091820151168185015290930192604090920191600101610f3d565b803560ff81168114610c33575f5ffd5b5f5f60408385031215610f8e575f5ffd5b823567ffffffffffffffff811115610fa4575f5ffd5b610fb085828601610ce9565b925050602083013567ffffffffffffffff811115610fcc575f5ffd5b8301601f81018513610fdc575f5ffd5b8035610fea610c8c82610bfa565b8082825260208201915060208360061b85010192508783111561100b575f5ffd5b6020840193505b828410156110625760408489031215611029575f5ffd5b611031610ba0565b61103a85610f6d565b815261104860208601610f6d565b602082015280835250602082019150604084019350611012565b809450505050509250929050565b634e487b7160e01b5f52601160045260245ffd5b5f6001820161109557611095611070565b5060010190565b634e487b7160e01b5f52603260045260245ffd5b5f6060820185835284602084015260606040840152808454808352608085019150855f5260205f2092505f5b818110156111035783546001600160a01b03168352600193840193602090930192016110dc565b5090979650505050505050565b80820180821115610a0257610a02611070565b602081525f610a136020830184610e1f565b600181811c9082168061114957607f821691505b60208210810361116757634e487b7160e01b5f52602260045260245ffd5b50919050565b601f8211156111b457805f5260205f20601f840160051c810160208510156111925750805b601f840160051c820191505b818110156111b1575f815560010161119e565b50505b505050565b815167ffffffffffffffff8111156111d3576111d3610b8c565b6111e7816111e18454611135565b8461116d565b6020601f821160018114611219575f83156112025750848201515b5f19600385901b1c1916600184901b1784556111b1565b5f84815260208120601f198516915b828110156112485787850151825560209485019460019092019101611228565b508482101561126557868401515f19600387901b60f8161c191681555b50505050600190811b0190555056fea2646970667358221220beddfd1f687b0ec0c99c72c9af2b164e30e6c5373c9007b6f5b0eb19b9bc8bf264736f6c634300081b0033","linkReferences":{}},"methodIdentifiers":{"blockCount()":"07225b4d","createGame(uint256,uint256,address[])":"202b0a9e","createLevel(string,(uint8,uint8)[])":"ce8da6a1","gameCount()":"4d1975b4","games(uint256)":"117a5b90","getLevelBlocks(uint256)":"cbb9dba8","getOwnerLevels(address)":"c3534c66","getTeamNames(address)":"a65fc867","levelCount()":"651a2b4c","levels(uint256)":"b2596a67","setTeamNames(string[])":"8678074e","taskMailbox()":"f42a9e13"},"id":0}